{
  "_format": "hh-sol-artifact-1",
  "contractName": "NFTCollectible",
  "sourceName": "contracts/NFTCollectible.sol",
  "abi": [
    {
      "inputs": [
        {
          "internalType": "string",
          "name": "baseURI",
          "type": "string"
        },
        {
          "internalType": "string",
          "name": "baseContractURI",
          "type": "string"
        }
      ],
      "stateMutability": "nonpayable",
      "type": "constructor"
    },
    {
      "anonymous": false,
      "inputs": [
        {
          "indexed": true,
          "internalType": "address",
          "name": "owner",
          "type": "address"
        },
        {
          "indexed": true,
          "internalType": "address",
          "name": "approved",
          "type": "address"
        },
        {
          "indexed": true,
          "internalType": "uint256",
          "name": "tokenId",
          "type": "uint256"
        }
      ],
      "name": "Approval",
      "type": "event"
    },
    {
      "anonymous": false,
      "inputs": [
        {
          "indexed": true,
          "internalType": "address",
          "name": "owner",
          "type": "address"
        },
        {
          "indexed": true,
          "internalType": "address",
          "name": "operator",
          "type": "address"
        },
        {
          "indexed": false,
          "internalType": "bool",
          "name": "approved",
          "type": "bool"
        }
      ],
      "name": "ApprovalForAll",
      "type": "event"
    },
    {
      "anonymous": false,
      "inputs": [
        {
          "indexed": true,
          "internalType": "address",
          "name": "previousOwner",
          "type": "address"
        },
        {
          "indexed": true,
          "internalType": "address",
          "name": "newOwner",
          "type": "address"
        }
      ],
      "name": "OwnershipTransferred",
      "type": "event"
    },
    {
      "anonymous": false,
      "inputs": [
        {
          "indexed": true,
          "internalType": "address",
          "name": "from",
          "type": "address"
        },
        {
          "indexed": true,
          "internalType": "address",
          "name": "to",
          "type": "address"
        },
        {
          "indexed": true,
          "internalType": "uint256",
          "name": "tokenId",
          "type": "uint256"
        }
      ],
      "name": "Transfer",
      "type": "event"
    },
    {
      "inputs": [],
      "name": "MAX_PER_MINT",
      "outputs": [
        {
          "internalType": "uint256",
          "name": "",
          "type": "uint256"
        }
      ],
      "stateMutability": "view",
      "type": "function"
    },
    {
      "inputs": [],
      "name": "MAX_RESERVE",
      "outputs": [
        {
          "internalType": "uint256",
          "name": "",
          "type": "uint256"
        }
      ],
      "stateMutability": "view",
      "type": "function"
    },
    {
      "inputs": [],
      "name": "MAX_SUPPLY",
      "outputs": [
        {
          "internalType": "uint256",
          "name": "",
          "type": "uint256"
        }
      ],
      "stateMutability": "view",
      "type": "function"
    },
    {
      "inputs": [],
      "name": "PRICE",
      "outputs": [
        {
          "internalType": "uint256",
          "name": "",
          "type": "uint256"
        }
      ],
      "stateMutability": "view",
      "type": "function"
    },
    {
      "inputs": [
        {
          "internalType": "address",
          "name": "to",
          "type": "address"
        },
        {
          "internalType": "uint256",
          "name": "tokenId",
          "type": "uint256"
        }
      ],
      "name": "approve",
      "outputs": [],
      "stateMutability": "nonpayable",
      "type": "function"
    },
    {
      "inputs": [
        {
          "internalType": "address",
          "name": "owner",
          "type": "address"
        }
      ],
      "name": "balanceOf",
      "outputs": [
        {
          "internalType": "uint256",
          "name": "",
          "type": "uint256"
        }
      ],
      "stateMutability": "view",
      "type": "function"
    },
    {
      "inputs": [],
      "name": "baseTokenURI",
      "outputs": [
        {
          "internalType": "string",
          "name": "",
          "type": "string"
        }
      ],
      "stateMutability": "view",
      "type": "function"
    },
    {
      "inputs": [],
      "name": "contractURI",
      "outputs": [
        {
          "internalType": "string",
          "name": "",
          "type": "string"
        }
      ],
      "stateMutability": "view",
      "type": "function"
    },
    {
      "inputs": [
        {
          "internalType": "uint256",
          "name": "tokenId",
          "type": "uint256"
        }
      ],
      "name": "getApproved",
      "outputs": [
        {
          "internalType": "address",
          "name": "",
          "type": "address"
        }
      ],
      "stateMutability": "view",
      "type": "function"
    },
    {
      "inputs": [
        {
          "internalType": "address",
          "name": "owner",
          "type": "address"
        },
        {
          "internalType": "address",
          "name": "operator",
          "type": "address"
        }
      ],
      "name": "isApprovedForAll",
      "outputs": [
        {
          "internalType": "bool",
          "name": "",
          "type": "bool"
        }
      ],
      "stateMutability": "view",
      "type": "function"
    },
    {
      "inputs": [
        {
          "internalType": "uint256",
          "name": "_count",
          "type": "uint256"
        }
      ],
      "name": "mintNFTs",
      "outputs": [],
      "stateMutability": "payable",
      "type": "function"
    },
    {
      "inputs": [],
      "name": "name",
      "outputs": [
        {
          "internalType": "string",
          "name": "",
          "type": "string"
        }
      ],
      "stateMutability": "view",
      "type": "function"
    },
    {
      "inputs": [],
      "name": "owner",
      "outputs": [
        {
          "internalType": "address",
          "name": "",
          "type": "address"
        }
      ],
      "stateMutability": "view",
      "type": "function"
    },
    {
      "inputs": [
        {
          "internalType": "uint256",
          "name": "tokenId",
          "type": "uint256"
        }
      ],
      "name": "ownerOf",
      "outputs": [
        {
          "internalType": "address",
          "name": "",
          "type": "address"
        }
      ],
      "stateMutability": "view",
      "type": "function"
    },
    {
      "inputs": [],
      "name": "renounceOwnership",
      "outputs": [],
      "stateMutability": "nonpayable",
      "type": "function"
    },
    {
      "inputs": [],
      "name": "reserveNFTs",
      "outputs": [],
      "stateMutability": "nonpayable",
      "type": "function"
    },
    {
      "inputs": [
        {
          "internalType": "address",
          "name": "from",
          "type": "address"
        },
        {
          "internalType": "address",
          "name": "to",
          "type": "address"
        },
        {
          "internalType": "uint256",
          "name": "tokenId",
          "type": "uint256"
        }
      ],
      "name": "safeTransferFrom",
      "outputs": [],
      "stateMutability": "nonpayable",
      "type": "function"
    },
    {
      "inputs": [
        {
          "internalType": "address",
          "name": "from",
          "type": "address"
        },
        {
          "internalType": "address",
          "name": "to",
          "type": "address"
        },
        {
          "internalType": "uint256",
          "name": "tokenId",
          "type": "uint256"
        },
        {
          "internalType": "bytes",
          "name": "_data",
          "type": "bytes"
        }
      ],
      "name": "safeTransferFrom",
      "outputs": [],
      "stateMutability": "nonpayable",
      "type": "function"
    },
    {
      "inputs": [
        {
          "internalType": "address",
          "name": "operator",
          "type": "address"
        },
        {
          "internalType": "bool",
          "name": "approved",
          "type": "bool"
        }
      ],
      "name": "setApprovalForAll",
      "outputs": [],
      "stateMutability": "nonpayable",
      "type": "function"
    },
    {
      "inputs": [
        {
          "internalType": "string",
          "name": "_baseTokenURI",
          "type": "string"
        }
      ],
      "name": "setBaseURI",
      "outputs": [],
      "stateMutability": "nonpayable",
      "type": "function"
    },
    {
      "inputs": [
        {
          "internalType": "string",
          "name": "_contractURI",
          "type": "string"
        }
      ],
      "name": "setContractURI",
      "outputs": [],
      "stateMutability": "nonpayable",
      "type": "function"
    },
    {
      "inputs": [
        {
          "internalType": "bytes4",
          "name": "interfaceId",
          "type": "bytes4"
        }
      ],
      "name": "supportsInterface",
      "outputs": [
        {
          "internalType": "bool",
          "name": "",
          "type": "bool"
        }
      ],
      "stateMutability": "view",
      "type": "function"
    },
    {
      "inputs": [],
      "name": "symbol",
      "outputs": [
        {
          "internalType": "string",
          "name": "",
          "type": "string"
        }
      ],
      "stateMutability": "view",
      "type": "function"
    },
    {
      "inputs": [
        {
          "internalType": "uint256",
          "name": "index",
          "type": "uint256"
        }
      ],
      "name": "tokenByIndex",
      "outputs": [
        {
          "internalType": "uint256",
          "name": "",
          "type": "uint256"
        }
      ],
      "stateMutability": "view",
      "type": "function"
    },
    {
      "inputs": [
        {
          "internalType": "address",
          "name": "owner",
          "type": "address"
        },
        {
          "internalType": "uint256",
          "name": "index",
          "type": "uint256"
        }
      ],
      "name": "tokenOfOwnerByIndex",
      "outputs": [
        {
          "internalType": "uint256",
          "name": "",
          "type": "uint256"
        }
      ],
      "stateMutability": "view",
      "type": "function"
    },
    {
      "inputs": [
        {
          "internalType": "uint256",
          "name": "tokenId",
          "type": "uint256"
        }
      ],
      "name": "tokenURI",
      "outputs": [
        {
          "internalType": "string",
          "name": "",
          "type": "string"
        }
      ],
      "stateMutability": "view",
      "type": "function"
    },
    {
      "inputs": [
        {
          "internalType": "address",
          "name": "_owner",
          "type": "address"
        }
      ],
      "name": "tokensOfOwner",
      "outputs": [
        {
          "internalType": "uint256[]",
          "name": "",
          "type": "uint256[]"
        }
      ],
      "stateMutability": "view",
      "type": "function"
    },
    {
      "inputs": [],
      "name": "totalSupply",
      "outputs": [
        {
          "internalType": "uint256",
          "name": "",
          "type": "uint256"
        }
      ],
      "stateMutability": "view",
      "type": "function"
    },
    {
      "inputs": [
        {
          "internalType": "address",
          "name": "from",
          "type": "address"
        },
        {
          "internalType": "address",
          "name": "to",
          "type": "address"
        },
        {
          "internalType": "uint256",
          "name": "tokenId",
          "type": "uint256"
        }
      ],
      "name": "transferFrom",
      "outputs": [],
      "stateMutability": "nonpayable",
      "type": "function"
    },
    {
      "inputs": [
        {
          "internalType": "address",
          "name": "newOwner",
          "type": "address"
        }
      ],
      "name": "transferOwnership",
      "outputs": [],
      "stateMutability": "nonpayable",
      "type": "function"
    },
    {
      "inputs": [],
      "name": "withdraw",
      "outputs": [],
      "stateMutability": "payable",
      "type": "function"
    }
  ],
  "bytecode": "0x60806040523480156200001157600080fd5b5060405162004b1338038062004b13833981810160405281019062000037919062000491565b6040518060400160405280601081526020017f4e465420436f6c6c65637469626c6532000000000000000000000000000000008152506040518060400160405280600581526020017f4e465443320000000000000000000000000000000000000000000000000000008152508160009080519060200190620000bb9291906200036f565b508060019080519060200190620000d49291906200036f565b505050620000f7620000eb6200012160201b60201c565b6200012960201b60201c565b6200010882620001ef60201b60201c565b62000119816200029a60201b60201c565b5050620006f7565b600033905090565b6000600a60009054906101000a900473ffffffffffffffffffffffffffffffffffffffff16905081600a60006101000a81548173ffffffffffffffffffffffffffffffffffffffff021916908373ffffffffffffffffffffffffffffffffffffffff1602179055508173ffffffffffffffffffffffffffffffffffffffff168173ffffffffffffffffffffffffffffffffffffffff167f8be0079c531659141344cd1fd0a4f28419497f9722a3daafe3b4186f6b6457e060405160405180910390a35050565b620001ff6200012160201b60201c565b73ffffffffffffffffffffffffffffffffffffffff16620002256200034560201b60201c565b73ffffffffffffffffffffffffffffffffffffffff16146200027e576040517f08c379a000000000000000000000000000000000000000000000000000000000815260040162000275906200052b565b60405180910390fd5b80600c9080519060200190620002969291906200036f565b5050565b620002aa6200012160201b60201c565b73ffffffffffffffffffffffffffffffffffffffff16620002d06200034560201b60201c565b73ffffffffffffffffffffffffffffffffffffffff161462000329576040517f08c379a000000000000000000000000000000000000000000000000000000000815260040162000320906200052b565b60405180910390fd5b80600d9080519060200190620003419291906200036f565b5050565b6000600a60009054906101000a900473ffffffffffffffffffffffffffffffffffffffff16905090565b8280546200037d90620005f3565b90600052602060002090601f016020900481019282620003a15760008555620003ed565b82601f10620003bc57805160ff1916838001178555620003ed565b82800160010185558215620003ed579182015b82811115620003ec578251825591602001919060010190620003cf565b5b509050620003fc919062000400565b5090565b5b808211156200041b57600081600090555060010162000401565b5090565b600062000436620004308462000576565b6200054d565b9050828152602081018484840111156200044f57600080fd5b6200045c848285620005bd565b509392505050565b600082601f8301126200047657600080fd5b8151620004888482602086016200041f565b91505092915050565b60008060408385031215620004a557600080fd5b600083015167ffffffffffffffff811115620004c057600080fd5b620004ce8582860162000464565b925050602083015167ffffffffffffffff811115620004ec57600080fd5b620004fa8582860162000464565b9150509250929050565b600062000513602083620005ac565b91506200052082620006ce565b602082019050919050565b60006020820190508181036000830152620005468162000504565b9050919050565b6000620005596200056c565b905062000567828262000629565b919050565b6000604051905090565b600067ffffffffffffffff8211156200059457620005936200068e565b5b6200059f82620006bd565b9050602081019050919050565b600082825260208201905092915050565b60005b83811015620005dd578082015181840152602081019050620005c0565b83811115620005ed576000848401525b50505050565b600060028204905060018216806200060c57607f821691505b602082108114156200062357620006226200065f565b5b50919050565b6200063482620006bd565b810181811067ffffffffffffffff821117156200065657620006556200068e565b5b80604052505050565b7f4e487b7100000000000000000000000000000000000000000000000000000000600052602260045260246000fd5b7f4e487b7100000000000000000000000000000000000000000000000000000000600052604160045260246000fd5b6000601f19601f8301169050919050565b7f4f776e61626c653a2063616c6c6572206973206e6f7420746865206f776e6572600082015250565b61440c80620007076000396000f3fe6080604052600436106101d85760003560e01c80636352211e11610102578063a22cb46511610095578063e8a3d48511610064578063e8a3d48514610690578063e985e9c5146106bb578063eff31e9e146106f8578063f2fde38b14610723576101d8565b8063a22cb465146105d6578063b88d4fde146105ff578063c87b56dd14610628578063d547cfb714610665576101d8565b80638d859f3e116100d15780638d859f3e1461052c5780638da5cb5b14610557578063938e3d7b1461058257806395d89b41146105ab576101d8565b80636352211e1461045e57806370a082311461049b578063715018a6146104d85780638462151c146104ef576101d8565b806323b872dd1161017a5780633ccfd60b116101495780633ccfd60b146103c557806342842e0e146103cf5780634f6ccce7146103f857806355f804b314610435576101d8565b806323b872dd146103185780632f745c591461034157806332cb6b0c1461037e5780633b4b1381146103a9576101d8565b8063095ea7b3116101b6578063095ea7b31461028257806309d42b30146102ab578063144100c7146102d657806318160ddd146102ed576101d8565b806301ffc9a7146101dd57806306fdde031461021a578063081812fc14610245575b600080fd5b3480156101e957600080fd5b5061020460048036038101906101ff9190612f26565b61074c565b6040516102119190613564565b60405180910390f35b34801561022657600080fd5b5061022f6107c6565b60405161023c919061357f565b60405180910390f35b34801561025157600080fd5b5061026c60048036038101906102679190612fb9565b610858565b60405161027991906134db565b60405180910390f35b34801561028e57600080fd5b506102a960048036038101906102a49190612eea565b6108dd565b005b3480156102b757600080fd5b506102c06109f5565b6040516102cd91906138a1565b60405180910390f35b3480156102e257600080fd5b506102eb6109fa565b005b3480156102f957600080fd5b50610302610b05565b60405161030f91906138a1565b60405180910390f35b34801561032457600080fd5b5061033f600480360381019061033a9190612de4565b610b12565b005b34801561034d57600080fd5b5061036860048036038101906103639190612eea565b610b72565b60405161037591906138a1565b60405180910390f35b34801561038a57600080fd5b50610393610c17565b6040516103a091906138a1565b60405180910390f35b6103c360048036038101906103be9190612fb9565b610c1c565b005b6103cd610d56565b005b3480156103db57600080fd5b506103f660048036038101906103f19190612de4565b610eca565b005b34801561040457600080fd5b5061041f600480360381019061041a9190612fb9565b610eea565b60405161042c91906138a1565b60405180910390f35b34801561044157600080fd5b5061045c60048036038101906104579190612f78565b610f81565b005b34801561046a57600080fd5b5061048560048036038101906104809190612fb9565b611017565b60405161049291906134db565b60405180910390f35b3480156104a757600080fd5b506104c260048036038101906104bd9190612d7f565b6110c9565b6040516104cf91906138a1565b60405180910390f35b3480156104e457600080fd5b506104ed611181565b005b3480156104fb57600080fd5b5061051660048036038101906105119190612d7f565b611209565b6040516105239190613542565b60405180910390f35b34801561053857600080fd5b50610541611303565b60405161054e91906138a1565b60405180910390f35b34801561056357600080fd5b5061056c61130d565b60405161057991906134db565b60405180910390f35b34801561058e57600080fd5b506105a960048036038101906105a49190612f78565b611337565b005b3480156105b757600080fd5b506105c06113cd565b6040516105cd919061357f565b60405180910390f35b3480156105e257600080fd5b506105fd60048036038101906105f89190612eae565b61145f565b005b34801561060b57600080fd5b5061062660048036038101906106219190612e33565b611475565b005b34801561063457600080fd5b5061064f600480360381019061064a9190612fb9565b6114d7565b60405161065c919061357f565b60405180910390f35b34801561067157600080fd5b5061067a61157e565b604051610687919061357f565b60405180910390f35b34801561069c57600080fd5b506106a561160c565b6040516106b2919061357f565b60405180910390f35b3480156106c757600080fd5b506106e260048036038101906106dd9190612da8565b61169a565b6040516106ef9190613564565b60405180910390f35b34801561070457600080fd5b5061070d61172e565b60405161071a91906138a1565b60405180910390f35b34801561072f57600080fd5b5061074a60048036038101906107459190612d7f565b611733565b005b60007f780e9d63000000000000000000000000000000000000000000000000000000007bffffffffffffffffffffffffffffffffffffffffffffffffffffffff1916827bffffffffffffffffffffffffffffffffffffffffffffffffffffffff191614806107bf57506107be8261182b565b5b9050919050565b6060600080546107d590613b95565b80601f016020809104026020016040519081016040528092919081815260200182805461080190613b95565b801561084e5780601f106108235761010080835404028352916020019161084e565b820191906000526020600020905b81548152906001019060200180831161083157829003601f168201915b5050505050905090565b60006108638261190d565b6108a2576040517f08c379a0000000000000000000000000000000000000000000000000000000008152600401610899906137a1565b60405180910390fd5b6004600083815260200190815260200160002060009054906101000a900473ffffffffffffffffffffffffffffffffffffffff169050919050565b60006108e882611017565b90508073ffffffffffffffffffffffffffffffffffffffff168373ffffffffffffffffffffffffffffffffffffffff161415610959576040517f08c379a000000000000000000000000000000000000000000000000000000000815260040161095090613821565b60405180910390fd5b8073ffffffffffffffffffffffffffffffffffffffff16610978611979565b73ffffffffffffffffffffffffffffffffffffffff1614806109a757506109a6816109a1611979565b61169a565b5b6109e6576040517f08c379a00000000000000000000000000000000000000000000000000000000081526004016109dd90613701565b60405180910390fd5b6109f08383611981565b505050565b600281565b610a02611979565b73ffffffffffffffffffffffffffffffffffffffff16610a2061130d565b73ffffffffffffffffffffffffffffffffffffffff1614610a76576040517f08c379a0000000000000000000000000000000000000000000000000000000008152600401610a6d906137c1565b60405180910390fd5b6000610a82600b611a3a565b9050600a610a9a600383611a4890919063ffffffff16565b10610ada576040517f08c379a0000000000000000000000000000000000000000000000000000000008152600401610ad1906135a1565b60405180910390fd5b60005b6003811015610b0157610aee611a5e565b8080610af990613bf8565b915050610add565b5050565b6000600880549050905090565b610b23610b1d611979565b82611a83565b610b62576040517f08c379a0000000000000000000000000000000000000000000000000000000008152600401610b5990613861565b60405180910390fd5b610b6d838383611b61565b505050565b6000610b7d836110c9565b8210610bbe576040517f08c379a0000000000000000000000000000000000000000000000000000000008152600401610bb5906135c1565b60405180910390fd5b600660008473ffffffffffffffffffffffffffffffffffffffff1673ffffffffffffffffffffffffffffffffffffffff168152602001908152602001600020600083815260200190815260200160002054905092915050565b600a81565b6000610c28600b611a3a565b9050600a610c3f8383611a4890919063ffffffff16565b1115610c80576040517f08c379a0000000000000000000000000000000000000000000000000000000008152600401610c77906136a1565b60405180910390fd5b600082118015610c91575060028211155b610cd0576040517f08c379a0000000000000000000000000000000000000000000000000000000008152600401610cc7906136c1565b60405180910390fd5b610ce982655af3107a4000611dbd90919063ffffffff16565b341015610d2b576040517f08c379a0000000000000000000000000000000000000000000000000000000008152600401610d2290613681565b60405180910390fd5b60005b82811015610d5157610d3e611a5e565b8080610d4990613bf8565b915050610d2e565b505050565b610d5e611979565b73ffffffffffffffffffffffffffffffffffffffff16610d7c61130d565b73ffffffffffffffffffffffffffffffffffffffff1614610dd2576040517f08c379a0000000000000000000000000000000000000000000000000000000008152600401610dc9906137c1565b60405180910390fd5b600047905060008111610e1a576040517f08c379a0000000000000000000000000000000000000000000000000000000008152600401610e1190613781565b60405180910390fd5b60003373ffffffffffffffffffffffffffffffffffffffff1682604051610e40906134c6565b60006040518083038185875af1925050503d8060008114610e7d576040519150601f19603f3d011682016040523d82523d6000602084013e610e82565b606091505b5050905080610ec6576040517f08c379a0000000000000000000000000000000000000000000000000000000008152600401610ebd90613841565b60405180910390fd5b5050565b610ee583838360405180602001604052806000815250611475565b505050565b6000610ef4610b05565b8210610f35576040517f08c379a0000000000000000000000000000000000000000000000000000000008152600401610f2c90613881565b60405180910390fd5b60088281548110610f6f577f4e487b7100000000000000000000000000000000000000000000000000000000600052603260045260246000fd5b90600052602060002001549050919050565b610f89611979565b73ffffffffffffffffffffffffffffffffffffffff16610fa761130d565b73ffffffffffffffffffffffffffffffffffffffff1614610ffd576040517f08c379a0000000000000000000000000000000000000000000000000000000008152600401610ff4906137c1565b60405180910390fd5b80600c9080519060200190611013929190612ba3565b5050565b6000806002600084815260200190815260200160002060009054906101000a900473ffffffffffffffffffffffffffffffffffffffff169050600073ffffffffffffffffffffffffffffffffffffffff168173ffffffffffffffffffffffffffffffffffffffff1614156110c0576040517f08c379a00000000000000000000000000000000000000000000000000000000081526004016110b790613741565b60405180910390fd5b80915050919050565b60008073ffffffffffffffffffffffffffffffffffffffff168273ffffffffffffffffffffffffffffffffffffffff16141561113a576040517f08c379a000000000000000000000000000000000000000000000000000000000815260040161113190613721565b60405180910390fd5b600360008373ffffffffffffffffffffffffffffffffffffffff1673ffffffffffffffffffffffffffffffffffffffff168152602001908152602001600020549050919050565b611189611979565b73ffffffffffffffffffffffffffffffffffffffff166111a761130d565b73ffffffffffffffffffffffffffffffffffffffff16146111fd576040517f08c379a00000000000000000000000000000000000000000000000000000000081526004016111f4906137c1565b60405180910390fd5b6112076000611dd3565b565b60606000611216836110c9565b905060008167ffffffffffffffff81111561125a577f4e487b7100000000000000000000000000000000000000000000000000000000600052604160045260246000fd5b6040519080825280602002602001820160405280156112885781602001602082028036833780820191505090505b50905060005b828110156112f8576112a08582610b72565b8282815181106112d9577f4e487b7100000000000000000000000000000000000000000000000000000000600052603260045260246000fd5b60200260200101818152505080806112f090613bf8565b91505061128e565b508092505050919050565b655af3107a400081565b6000600a60009054906101000a900473ffffffffffffffffffffffffffffffffffffffff16905090565b61133f611979565b73ffffffffffffffffffffffffffffffffffffffff1661135d61130d565b73ffffffffffffffffffffffffffffffffffffffff16146113b3576040517f08c379a00000000000000000000000000000000000000000000000000000000081526004016113aa906137c1565b60405180910390fd5b80600d90805190602001906113c9929190612ba3565b5050565b6060600180546113dc90613b95565b80601f016020809104026020016040519081016040528092919081815260200182805461140890613b95565b80156114555780601f1061142a57610100808354040283529160200191611455565b820191906000526020600020905b81548152906001019060200180831161143857829003601f168201915b5050505050905090565b61147161146a611979565b8383611e99565b5050565b611486611480611979565b83611a83565b6114c5576040517f08c379a00000000000000000000000000000000000000000000000000000000081526004016114bc90613861565b60405180910390fd5b6114d184848484612006565b50505050565b60606114e28261190d565b611521576040517f08c379a000000000000000000000000000000000000000000000000000000000815260040161151890613801565b60405180910390fd5b600061152b612062565b9050600081511161154b5760405180602001604052806000815250611576565b80611555846120f4565b6040516020016115669291906134a2565b6040516020818303038152906040525b915050919050565b600c805461158b90613b95565b80601f01602080910402602001604051908101604052809291908181526020018280546115b790613b95565b80156116045780601f106115d957610100808354040283529160200191611604565b820191906000526020600020905b8154815290600101906020018083116115e757829003601f168201915b505050505081565b600d805461161990613b95565b80601f016020809104026020016040519081016040528092919081815260200182805461164590613b95565b80156116925780601f1061166757610100808354040283529160200191611692565b820191906000526020600020905b81548152906001019060200180831161167557829003601f168201915b505050505081565b6000600560008473ffffffffffffffffffffffffffffffffffffffff1673ffffffffffffffffffffffffffffffffffffffff16815260200190815260200160002060008373ffffffffffffffffffffffffffffffffffffffff1673ffffffffffffffffffffffffffffffffffffffff16815260200190815260200160002060009054906101000a900460ff16905092915050565b600381565b61173b611979565b73ffffffffffffffffffffffffffffffffffffffff1661175961130d565b73ffffffffffffffffffffffffffffffffffffffff16146117af576040517f08c379a00000000000000000000000000000000000000000000000000000000081526004016117a6906137c1565b60405180910390fd5b600073ffffffffffffffffffffffffffffffffffffffff168173ffffffffffffffffffffffffffffffffffffffff16141561181f576040517f08c379a000000000000000000000000000000000000000000000000000000000815260040161181690613601565b60405180910390fd5b61182881611dd3565b50565b60007f80ac58cd000000000000000000000000000000000000000000000000000000007bffffffffffffffffffffffffffffffffffffffffffffffffffffffff1916827bffffffffffffffffffffffffffffffffffffffffffffffffffffffff191614806118f657507f5b5e139f000000000000000000000000000000000000000000000000000000007bffffffffffffffffffffffffffffffffffffffffffffffffffffffff1916827bffffffffffffffffffffffffffffffffffffffffffffffffffffffff1916145b806119065750611905826122a1565b5b9050919050565b60008073ffffffffffffffffffffffffffffffffffffffff166002600084815260200190815260200160002060009054906101000a900473ffffffffffffffffffffffffffffffffffffffff1673ffffffffffffffffffffffffffffffffffffffff1614159050919050565b600033905090565b816004600083815260200190815260200160002060006101000a81548173ffffffffffffffffffffffffffffffffffffffff021916908373ffffffffffffffffffffffffffffffffffffffff160217905550808273ffffffffffffffffffffffffffffffffffffffff166119f483611017565b73ffffffffffffffffffffffffffffffffffffffff167f8c5be1e5ebec7d5bd14f71427d1e84f3dd0314c0f7b2291e5b200ac8c7c3b92560405160405180910390a45050565b600081600001549050919050565b60008183611a5691906139ca565b905092915050565b6000611a6a600b611a3a565b9050611a76338261230b565b611a80600b612329565b50565b6000611a8e8261190d565b611acd576040517f08c379a0000000000000000000000000000000000000000000000000000000008152600401611ac4906136e1565b60405180910390fd5b6000611ad883611017565b90508073ffffffffffffffffffffffffffffffffffffffff168473ffffffffffffffffffffffffffffffffffffffff161480611b4757508373ffffffffffffffffffffffffffffffffffffffff16611b2f84610858565b73ffffffffffffffffffffffffffffffffffffffff16145b80611b585750611b57818561169a565b5b91505092915050565b8273ffffffffffffffffffffffffffffffffffffffff16611b8182611017565b73ffffffffffffffffffffffffffffffffffffffff1614611bd7576040517f08c379a0000000000000000000000000000000000000000000000000000000008152600401611bce906137e1565b60405180910390fd5b600073ffffffffffffffffffffffffffffffffffffffff168273ffffffffffffffffffffffffffffffffffffffff161415611c47576040517f08c379a0000000000000000000000000000000000000000000000000000000008152600401611c3e90613641565b60405180910390fd5b611c5283838361233f565b611c5d600082611981565b6001600360008573ffffffffffffffffffffffffffffffffffffffff1673ffffffffffffffffffffffffffffffffffffffff1681526020019081526020016000206000828254611cad9190613aab565b925050819055506001600360008473ffffffffffffffffffffffffffffffffffffffff1673ffffffffffffffffffffffffffffffffffffffff1681526020019081526020016000206000828254611d0491906139ca565b92505081905550816002600083815260200190815260200160002060006101000a81548173ffffffffffffffffffffffffffffffffffffffff021916908373ffffffffffffffffffffffffffffffffffffffff160217905550808273ffffffffffffffffffffffffffffffffffffffff168473ffffffffffffffffffffffffffffffffffffffff167fddf252ad1be2c89b69c2b068fc378daa952ba7f163c4a11628f55a4df523b3ef60405160405180910390a4505050565b60008183611dcb9190613a51565b905092915050565b6000600a60009054906101000a900473ffffffffffffffffffffffffffffffffffffffff16905081600a60006101000a81548173ffffffffffffffffffffffffffffffffffffffff021916908373ffffffffffffffffffffffffffffffffffffffff1602179055508173ffffffffffffffffffffffffffffffffffffffff168173ffffffffffffffffffffffffffffffffffffffff167f8be0079c531659141344cd1fd0a4f28419497f9722a3daafe3b4186f6b6457e060405160405180910390a35050565b8173ffffffffffffffffffffffffffffffffffffffff168373ffffffffffffffffffffffffffffffffffffffff161415611f08576040517f08c379a0000000000000000000000000000000000000000000000000000000008152600401611eff90613661565b60405180910390fd5b80600560008573ffffffffffffffffffffffffffffffffffffffff1673ffffffffffffffffffffffffffffffffffffffff16815260200190815260200160002060008473ffffffffffffffffffffffffffffffffffffffff1673ffffffffffffffffffffffffffffffffffffffff16815260200190815260200160002060006101000a81548160ff0219169083151502179055508173ffffffffffffffffffffffffffffffffffffffff168373ffffffffffffffffffffffffffffffffffffffff167f17307eab39ab6107e8899845ad3d59bd9653f200f220920489ca2b5937696c3183604051611ff99190613564565b60405180910390a3505050565b612011848484611b61565b61201d84848484612453565b61205c576040517f08c379a0000000000000000000000000000000000000000000000000000000008152600401612053906135e1565b60405180910390fd5b50505050565b6060600c805461207190613b95565b80601f016020809104026020016040519081016040528092919081815260200182805461209d90613b95565b80156120ea5780601f106120bf576101008083540402835291602001916120ea565b820191906000526020600020905b8154815290600101906020018083116120cd57829003601f168201915b5050505050905090565b6060600082141561213c576040518060400160405280600181526020017f3000000000000000000000000000000000000000000000000000000000000000815250905061229c565b600082905060005b6000821461216e57808061215790613bf8565b915050600a826121679190613a20565b9150612144565b60008167ffffffffffffffff8111156121b0577f4e487b7100000000000000000000000000000000000000000000000000000000600052604160045260246000fd5b6040519080825280601f01601f1916602001820160405280156121e25781602001600182028036833780820191505090505b5090505b60008514612295576001826121fb9190613aab565b9150600a8561220a9190613c41565b603061221691906139ca565b60f81b818381518110612252577f4e487b7100000000000000000000000000000000000000000000000000000000600052603260045260246000fd5b60200101907effffffffffffffffffffffffffffffffffffffffffffffffffffffffffffff1916908160001a905350600a8561228e9190613a20565b94506121e6565b8093505050505b919050565b60007f01ffc9a7000000000000000000000000000000000000000000000000000000007bffffffffffffffffffffffffffffffffffffffffffffffffffffffff1916827bffffffffffffffffffffffffffffffffffffffffffffffffffffffff1916149050919050565b6123258282604051806020016040528060008152506125ea565b5050565b6001816000016000828254019250508190555050565b61234a838383612645565b600073ffffffffffffffffffffffffffffffffffffffff168373ffffffffffffffffffffffffffffffffffffffff16141561238d576123888161264a565b6123cc565b8173ffffffffffffffffffffffffffffffffffffffff168373ffffffffffffffffffffffffffffffffffffffff16146123cb576123ca8382612693565b5b5b600073ffffffffffffffffffffffffffffffffffffffff168273ffffffffffffffffffffffffffffffffffffffff16141561240f5761240a81612800565b61244e565b8273ffffffffffffffffffffffffffffffffffffffff168273ffffffffffffffffffffffffffffffffffffffff161461244d5761244c8282612943565b5b5b505050565b60006124748473ffffffffffffffffffffffffffffffffffffffff166129c2565b156125dd578373ffffffffffffffffffffffffffffffffffffffff1663150b7a0261249d611979565b8786866040518563ffffffff1660e01b81526004016124bf94939291906134f6565b602060405180830381600087803b1580156124d957600080fd5b505af192505050801561250a57506040513d601f19601f820116820180604052508101906125079190612f4f565b60015b61258d573d806000811461253a576040519150601f19603f3d011682016040523d82523d6000602084013e61253f565b606091505b50600081511415612585576040517f08c379a000000000000000000000000000000000000000000000000000000000815260040161257c906135e1565b60405180910390fd5b805181602001fd5b63150b7a0260e01b7bffffffffffffffffffffffffffffffffffffffffffffffffffffffff1916817bffffffffffffffffffffffffffffffffffffffffffffffffffffffff1916149150506125e2565b600190505b949350505050565b6125f483836129d5565b6126016000848484612453565b612640576040517f08c379a0000000000000000000000000000000000000000000000000000000008152600401612637906135e1565b60405180910390fd5b505050565b505050565b6008805490506009600083815260200190815260200160002081905550600881908060018154018082558091505060019003906000526020600020016000909190919091505550565b600060016126a0846110c9565b6126aa9190613aab565b905060006007600084815260200190815260200160002054905081811461278f576000600660008673ffffffffffffffffffffffffffffffffffffffff1673ffffffffffffffffffffffffffffffffffffffff168152602001908152602001600020600084815260200190815260200160002054905080600660008773ffffffffffffffffffffffffffffffffffffffff1673ffffffffffffffffffffffffffffffffffffffff168152602001908152602001600020600084815260200190815260200160002081905550816007600083815260200190815260200160002081905550505b6007600084815260200190815260200160002060009055600660008573ffffffffffffffffffffffffffffffffffffffff1673ffffffffffffffffffffffffffffffffffffffff16815260200190815260200160002060008381526020019081526020016000206000905550505050565b600060016008805490506128149190613aab565b905060006009600084815260200190815260200160002054905060006008838154811061286a577f4e487b7100000000000000000000000000000000000000000000000000000000600052603260045260246000fd5b9060005260206000200154905080600883815481106128b2577f4e487b7100000000000000000000000000000000000000000000000000000000600052603260045260246000fd5b906000526020600020018190555081600960008381526020019081526020016000208190555060096000858152602001908152602001600020600090556008805480612927577f4e487b7100000000000000000000000000000000000000000000000000000000600052603160045260246000fd5b6001900381819060005260206000200160009055905550505050565b600061294e836110c9565b905081600660008573ffffffffffffffffffffffffffffffffffffffff1673ffffffffffffffffffffffffffffffffffffffff168152602001908152602001600020600083815260200190815260200160002081905550806007600084815260200190815260200160002081905550505050565b600080823b905060008111915050919050565b600073ffffffffffffffffffffffffffffffffffffffff168273ffffffffffffffffffffffffffffffffffffffff161415612a45576040517f08c379a0000000000000000000000000000000000000000000000000000000008152600401612a3c90613761565b60405180910390fd5b612a4e8161190d565b15612a8e576040517f08c379a0000000000000000000000000000000000000000000000000000000008152600401612a8590613621565b60405180910390fd5b612a9a6000838361233f565b6001600360008473ffffffffffffffffffffffffffffffffffffffff1673ffffffffffffffffffffffffffffffffffffffff1681526020019081526020016000206000828254612aea91906139ca565b92505081905550816002600083815260200190815260200160002060006101000a81548173ffffffffffffffffffffffffffffffffffffffff021916908373ffffffffffffffffffffffffffffffffffffffff160217905550808273ffffffffffffffffffffffffffffffffffffffff16600073ffffffffffffffffffffffffffffffffffffffff167fddf252ad1be2c89b69c2b068fc378daa952ba7f163c4a11628f55a4df523b3ef60405160405180910390a45050565b828054612baf90613b95565b90600052602060002090601f016020900481019282612bd15760008555612c18565b82601f10612bea57805160ff1916838001178555612c18565b82800160010185558215612c18579182015b82811115612c17578251825591602001919060010190612bfc565b5b509050612c259190612c29565b5090565b5b80821115612c42576000816000905550600101612c2a565b5090565b6000612c59612c54846138e1565b6138bc565b905082815260208101848484011115612c7157600080fd5b612c7c848285613b53565b509392505050565b6000612c97612c9284613912565b6138bc565b905082815260208101848484011115612caf57600080fd5b612cba848285613b53565b509392505050565b600081359050612cd18161437a565b92915050565b600081359050612ce681614391565b92915050565b600081359050612cfb816143a8565b92915050565b600081519050612d10816143a8565b92915050565b600082601f830112612d2757600080fd5b8135612d37848260208601612c46565b91505092915050565b600082601f830112612d5157600080fd5b8135612d61848260208601612c84565b91505092915050565b600081359050612d79816143bf565b92915050565b600060208284031215612d9157600080fd5b6000612d9f84828501612cc2565b91505092915050565b60008060408385031215612dbb57600080fd5b6000612dc985828601612cc2565b9250506020612dda85828601612cc2565b9150509250929050565b600080600060608486031215612df957600080fd5b6000612e0786828701612cc2565b9350506020612e1886828701612cc2565b9250506040612e2986828701612d6a565b9150509250925092565b60008060008060808587031215612e4957600080fd5b6000612e5787828801612cc2565b9450506020612e6887828801612cc2565b9350506040612e7987828801612d6a565b925050606085013567ffffffffffffffff811115612e9657600080fd5b612ea287828801612d16565b91505092959194509250565b60008060408385031215612ec157600080fd5b6000612ecf85828601612cc2565b9250506020612ee085828601612cd7565b9150509250929050565b60008060408385031215612efd57600080fd5b6000612f0b85828601612cc2565b9250506020612f1c85828601612d6a565b9150509250929050565b600060208284031215612f3857600080fd5b6000612f4684828501612cec565b91505092915050565b600060208284031215612f6157600080fd5b6000612f6f84828501612d01565b91505092915050565b600060208284031215612f8a57600080fd5b600082013567ffffffffffffffff811115612fa457600080fd5b612fb084828501612d40565b91505092915050565b600060208284031215612fcb57600080fd5b6000612fd984828501612d6a565b91505092915050565b6000612fee8383613484565b60208301905092915050565b61300381613adf565b82525050565b600061301482613953565b61301e8185613981565b935061302983613943565b8060005b8381101561305a5781516130418882612fe2565b975061304c83613974565b92505060018101905061302d565b5085935050505092915050565b61307081613af1565b82525050565b60006130818261395e565b61308b8185613992565b935061309b818560208601613b62565b6130a481613d2e565b840191505092915050565b60006130ba82613969565b6130c481856139ae565b93506130d4818560208601613b62565b6130dd81613d2e565b840191505092915050565b60006130f382613969565b6130fd81856139bf565b935061310d818560208601613b62565b80840191505092915050565b6000613126601f836139ae565b915061313182613d3f565b602082019050919050565b6000613149602b836139ae565b915061315482613d68565b604082019050919050565b600061316c6032836139ae565b915061317782613db7565b604082019050919050565b600061318f6026836139ae565b915061319a82613e06565b604082019050919050565b60006131b2601c836139ae565b91506131bd82613e55565b602082019050919050565b60006131d56024836139ae565b91506131e082613e7e565b604082019050919050565b60006131f86019836139ae565b915061320382613ecd565b602082019050919050565b600061321b6022836139ae565b915061322682613ef6565b604082019050919050565b600061323e6015836139ae565b915061324982613f45565b602082019050919050565b60006132616025836139ae565b915061326c82613f6e565b604082019050919050565b6000613284602c836139ae565b915061328f82613fbd565b604082019050919050565b60006132a76038836139ae565b91506132b28261400c565b604082019050919050565b60006132ca602a836139ae565b91506132d58261405b565b604082019050919050565b60006132ed6029836139ae565b91506132f8826140aa565b604082019050919050565b60006133106020836139ae565b915061331b826140f9565b602082019050919050565b60006133336019836139ae565b915061333e82614122565b602082019050919050565b6000613356602c836139ae565b91506133618261414b565b604082019050919050565b60006133796020836139ae565b91506133848261419a565b602082019050919050565b600061339c6029836139ae565b91506133a7826141c3565b604082019050919050565b60006133bf602f836139ae565b91506133ca82614212565b604082019050919050565b60006133e26021836139ae565b91506133ed82614261565b604082019050919050565b60006134056000836139a3565b9150613410826142b0565b600082019050919050565b60006134286010836139ae565b9150613433826142b3565b602082019050919050565b600061344b6031836139ae565b9150613456826142dc565b604082019050919050565b600061346e602c836139ae565b91506134798261432b565b604082019050919050565b61348d81613b49565b82525050565b61349c81613b49565b82525050565b60006134ae82856130e8565b91506134ba82846130e8565b91508190509392505050565b60006134d1826133f8565b9150819050919050565b60006020820190506134f06000830184612ffa565b92915050565b600060808201905061350b6000830187612ffa565b6135186020830186612ffa565b6135256040830185613493565b81810360608301526135378184613076565b905095945050505050565b6000602082019050818103600083015261355c8184613009565b905092915050565b60006020820190506135796000830184613067565b92915050565b6000602082019050818103600083015261359981846130af565b905092915050565b600060208201905081810360008301526135ba81613119565b9050919050565b600060208201905081810360008301526135da8161313c565b9050919050565b600060208201905081810360008301526135fa8161315f565b9050919050565b6000602082019050818103600083015261361a81613182565b9050919050565b6000602082019050818103600083015261363a816131a5565b9050919050565b6000602082019050818103600083015261365a816131c8565b9050919050565b6000602082019050818103600083015261367a816131eb565b9050919050565b6000602082019050818103600083015261369a8161320e565b9050919050565b600060208201905081810360008301526136ba81613231565b9050919050565b600060208201905081810360008301526136da81613254565b9050919050565b600060208201905081810360008301526136fa81613277565b9050919050565b6000602082019050818103600083015261371a8161329a565b9050919050565b6000602082019050818103600083015261373a816132bd565b9050919050565b6000602082019050818103600083015261375a816132e0565b9050919050565b6000602082019050818103600083015261377a81613303565b9050919050565b6000602082019050818103600083015261379a81613326565b9050919050565b600060208201905081810360008301526137ba81613349565b9050919050565b600060208201905081810360008301526137da8161336c565b9050919050565b600060208201905081810360008301526137fa8161338f565b9050919050565b6000602082019050818103600083015261381a816133b2565b9050919050565b6000602082019050818103600083015261383a816133d5565b9050919050565b6000602082019050818103600083015261385a8161341b565b9050919050565b6000602082019050818103600083015261387a8161343e565b9050919050565b6000602082019050818103600083015261389a81613461565b9050919050565b60006020820190506138b66000830184613493565b92915050565b60006138c66138d7565b90506138d28282613bc7565b919050565b6000604051905090565b600067ffffffffffffffff8211156138fc576138fb613cff565b5b61390582613d2e565b9050602081019050919050565b600067ffffffffffffffff82111561392d5761392c613cff565b5b61393682613d2e565b9050602081019050919050565b6000819050602082019050919050565b600081519050919050565b600081519050919050565b600081519050919050565b6000602082019050919050565b600082825260208201905092915050565b600082825260208201905092915050565b600081905092915050565b600082825260208201905092915050565b600081905092915050565b60006139d582613b49565b91506139e083613b49565b9250827fffffffffffffffffffffffffffffffffffffffffffffffffffffffffffffffff03821115613a1557613a14613c72565b5b828201905092915050565b6000613a2b82613b49565b9150613a3683613b49565b925082613a4657613a45613ca1565b5b828204905092915050565b6000613a5c82613b49565b9150613a6783613b49565b9250817fffffffffffffffffffffffffffffffffffffffffffffffffffffffffffffffff0483118215151615613aa057613a9f613c72565b5b828202905092915050565b6000613ab682613b49565b9150613ac183613b49565b925082821015613ad457613ad3613c72565b5b828203905092915050565b6000613aea82613b29565b9050919050565b60008115159050919050565b60007fffffffff0000000000000000000000000000000000000000000000000000000082169050919050565b600073ffffffffffffffffffffffffffffffffffffffff82169050919050565b6000819050919050565b82818337600083830152505050565b60005b83811015613b80578082015181840152602081019050613b65565b83811115613b8f576000848401525b50505050565b60006002820490506001821680613bad57607f821691505b60208210811415613bc157613bc0613cd0565b5b50919050565b613bd082613d2e565b810181811067ffffffffffffffff82111715613bef57613bee613cff565b5b80604052505050565b6000613c0382613b49565b91507fffffffffffffffffffffffffffffffffffffffffffffffffffffffffffffffff821415613c3657613c35613c72565b5b600182019050919050565b6000613c4c82613b49565b9150613c5783613b49565b925082613c6757613c66613ca1565b5b828206905092915050565b7f4e487b7100000000000000000000000000000000000000000000000000000000600052601160045260246000fd5b7f4e487b7100000000000000000000000000000000000000000000000000000000600052601260045260246000fd5b7f4e487b7100000000000000000000000000000000000000000000000000000000600052602260045260246000fd5b7f4e487b7100000000000000000000000000000000000000000000000000000000600052604160045260246000fd5b6000601f19601f8301169050919050565b7f4e6f7420656e6f756768204e465473206c65667420746f207265736572766500600082015250565b7f455243373231456e756d657261626c653a206f776e657220696e646578206f7560008201527f74206f6620626f756e6473000000000000000000000000000000000000000000602082015250565b7f4552433732313a207472616e7366657220746f206e6f6e20455243373231526560008201527f63656976657220696d706c656d656e7465720000000000000000000000000000602082015250565b7f4f776e61626c653a206e6577206f776e657220697320746865207a65726f206160008201527f6464726573730000000000000000000000000000000000000000000000000000602082015250565b7f4552433732313a20746f6b656e20616c7265616479206d696e74656400000000600082015250565b7f4552433732313a207472616e7366657220746f20746865207a65726f2061646460008201527f7265737300000000000000000000000000000000000000000000000000000000602082015250565b7f4552433732313a20617070726f766520746f2063616c6c657200000000000000600082015250565b7f4e6f7420656e6f75676820657468657220746f207075726368617365204e465460008201527f732e000000000000000000000000000000000000000000000000000000000000602082015250565b7f4e6f7420656e6f756768204e465473206c656674210000000000000000000000600082015250565b7f43616e6e6f74206d696e7420737065636966696564206e756d626572206f662060008201527f4e4654732e000000000000000000000000000000000000000000000000000000602082015250565b7f4552433732313a206f70657261746f7220717565727920666f72206e6f6e657860008201527f697374656e7420746f6b656e0000000000000000000000000000000000000000602082015250565b7f4552433732313a20617070726f76652063616c6c6572206973206e6f74206f7760008201527f6e6572206e6f7220617070726f76656420666f7220616c6c0000000000000000602082015250565b7f4552433732313a2062616c616e636520717565727920666f7220746865207a6560008201527f726f206164647265737300000000000000000000000000000000000000000000602082015250565b7f4552433732313a206f776e657220717565727920666f72206e6f6e657869737460008201527f656e7420746f6b656e0000000000000000000000000000000000000000000000602082015250565b7f4552433732313a206d696e7420746f20746865207a65726f2061646472657373600082015250565b7f4e6f206574686572206c65667420746f20776974686472617700000000000000600082015250565b7f4552433732313a20617070726f76656420717565727920666f72206e6f6e657860008201527f697374656e7420746f6b656e0000000000000000000000000000000000000000602082015250565b7f4f776e61626c653a2063616c6c6572206973206e6f7420746865206f776e6572600082015250565b7f4552433732313a207472616e73666572206f6620746f6b656e2074686174206960008201527f73206e6f74206f776e0000000000000000000000000000000000000000000000602082015250565b7f4552433732314d657461646174613a2055524920717565727920666f72206e6f60008201527f6e6578697374656e7420746f6b656e0000000000000000000000000000000000602082015250565b7f4552433732313a20617070726f76616c20746f2063757272656e74206f776e6560008201527f7200000000000000000000000000000000000000000000000000000000000000602082015250565b50565b7f5472616e73666572206661696c65642e00000000000000000000000000000000600082015250565b7f4552433732313a207472616e736665722063616c6c6572206973206e6f74206f60008201527f776e6572206e6f7220617070726f766564000000000000000000000000000000602082015250565b7f455243373231456e756d657261626c653a20676c6f62616c20696e646578206f60008201527f7574206f6620626f756e64730000000000000000000000000000000000000000602082015250565b61438381613adf565b811461438e57600080fd5b50565b61439a81613af1565b81146143a557600080fd5b50565b6143b181613afd565b81146143bc57600080fd5b50565b6143c881613b49565b81146143d357600080fd5b5056fea2646970667358221220013bfe6602331b64dd140f2e323ff9bc80996937d68141b047cb5afaca735cc664736f6c63430008040033",
  "linkReferences": {},
  "deployedLinkReferences": {}
}